{
  "contractName": "BetChain",
  "abi": [
    {
      "constant": false,
      "inputs": [
        {
          "name": "_issue",
          "type": "string"
        }
      ],
      "name": "settleOrder",
      "outputs": [],
      "payable": false,
      "stateMutability": "nonpayable",
      "type": "function"
    },
    {
      "constant": true,
      "inputs": [],
      "name": "searchBalance",
      "outputs": [
        {
          "name": "",
          "type": "uint256"
        }
      ],
      "payable": false,
      "stateMutability": "view",
      "type": "function"
    },
    {
      "constant": true,
      "inputs": [
        {
          "name": "_issue",
          "type": "string"
        }
      ],
      "name": "search",
      "outputs": [
        {
          "name": "",
          "type": "uint256"
        }
      ],
      "payable": false,
      "stateMutability": "view",
      "type": "function"
    },
    {
      "constant": true,
      "inputs": [],
      "name": "getNowTime",
      "outputs": [
        {
          "name": "",
          "type": "uint256"
        }
      ],
      "payable": false,
      "stateMutability": "view",
      "type": "function"
    },
    {
      "constant": true,
      "inputs": [
        {
          "name": "_issue",
          "type": "string"
        }
      ],
      "name": "getWinNumbers",
      "outputs": [
        {
          "name": "",
          "type": "uint8[]"
        }
      ],
      "payable": false,
      "stateMutability": "view",
      "type": "function"
    },
    {
      "constant": false,
      "inputs": [
        {
          "name": "_issue",
          "type": "string"
        },
        {
          "name": "randomStr",
          "type": "string"
        }
      ],
      "name": "setWinNumbers",
      "outputs": [],
      "payable": false,
      "stateMutability": "nonpayable",
      "type": "function"
    },
    {
      "constant": false,
      "inputs": [
        {
          "name": "_issue",
          "type": "string"
        },
        {
          "name": "betnums",
          "type": "uint8[]"
        }
      ],
      "name": "placeOrder",
      "outputs": [],
      "payable": true,
      "stateMutability": "payable",
      "type": "function"
    },
    {
      "constant": false,
      "inputs": [
        {
          "name": "target",
          "type": "address"
        },
        {
          "name": "coins",
          "type": "uint256"
        }
      ],
      "name": "transferBack",
      "outputs": [],
      "payable": false,
      "stateMutability": "nonpayable",
      "type": "function"
    },
    {
      "constant": true,
      "inputs": [
        {
          "name": "_issue",
          "type": "string"
        }
      ],
      "name": "searchOrder",
      "outputs": [
        {
          "name": "",
          "type": "uint256"
        }
      ],
      "payable": false,
      "stateMutability": "view",
      "type": "function"
    },
    {
      "constant": false,
      "inputs": [
        {
          "name": "_issue",
          "type": "string"
        }
      ],
      "name": "settlePrize",
      "outputs": [],
      "payable": false,
      "stateMutability": "nonpayable",
      "type": "function"
    },
    {
      "constant": false,
      "inputs": [
        {
          "name": "betcoins",
          "type": "uint256"
        },
        {
          "name": "winNumberCount",
          "type": "uint8"
        }
      ],
      "name": "calculatePrize",
      "outputs": [
        {
          "name": "",
          "type": "uint256"
        }
      ],
      "payable": false,
      "stateMutability": "nonpayable",
      "type": "function"
    },
    {
      "constant": true,
      "inputs": [
        {
          "name": "randomStr",
          "type": "string"
        },
        {
          "name": "numberCount",
          "type": "uint256"
        },
        {
          "name": "numberCountMax",
          "type": "uint256"
        }
      ],
      "name": "generateWinNumbers",
      "outputs": [
        {
          "name": "",
          "type": "bytes"
        }
      ],
      "payable": false,
      "stateMutability": "view",
      "type": "function"
    },
    {
      "inputs": [],
      "payable": false,
      "stateMutability": "nonpayable",
      "type": "constructor"
    },
    {
      "payable": true,
      "stateMutability": "payable",
      "type": "fallback"
    },
    {
      "anonymous": false,
      "inputs": [
        {
          "indexed": false,
          "name": "msg",
          "type": "address"
        },
        {
          "indexed": false,
          "name": "betnums",
          "type": "uint8[]"
        },
        {
          "indexed": false,
          "name": "value",
          "type": "uint256"
        }
      ],
      "name": "placeorder",
      "type": "event"
    }
  ],
  "bytecode": "0x60606040526001600460006101000a81548161ffff021916908361ffff1602179055506080600460026101000a81548161ffff021916908361ffff160217905550600a6004806101000a81548161ffff021916908361ffff16021790555060056004601a6101000a81548160ff021916908360ff160217905550655af3107a40006005556000600181111561009057fe5b600660006101000a81548160ff021916908360ff16021790555034156100b557600080fd5b33600460066101000a81548173ffffffffffffffffffffffffffffffffffffffff021916908373ffffffffffffffffffffffffffffffffffffffff160217905550611ecc806101056000396000f3006060604052600436106100ba576000357c0100000000000000000000000000000000000000000000000000000000900463ffffffff1680633723cd9e146100bc5780635890704f14610119578063820ed086146101425780639b819d38146101b35780639d245238146101dc578063be3edd831461028e578063c4508ffd1461032e578063c8f2835f146103c0578063e35a48de14610402578063e4fc890614610473578063ef93f177146104d0578063fd81745a14610513575b005b34156100c757600080fd5b610117600480803590602001908201803590602001908080601f016020809104026020016040519081016040528093929190818152602001838380828437820191505050505050919050506105fb565b005b341561012457600080fd5b61012c610b06565b6040518082815260200191505060405180910390f35b341561014d57600080fd5b61019d600480803590602001908201803590602001908080601f01602080910402602001604051908101604052809392919081815260200183838082843782019150505050505091905050610b25565b6040518082815260200191505060405180910390f35b34156101be57600080fd5b6101c6610b9d565b6040518082815260200191505060405180910390f35b34156101e757600080fd5b610237600480803590602001908201803590602001908080601f01602080910402602001604051908101604052809392919081815260200183838082843782019150505050505091905050610ba5565b6040518080602001828103825283818151815260200191508051906020019060200280838360005b8381101561027a57808201518184015260208101905061025f565b505050509050019250505060405180910390f35b341561029957600080fd5b61032c600480803590602001908201803590602001908080601f0160208091040260200160405190810160405280939291908181526020018383808284378201915050505050509190803590602001908201803590602001908080601f01602080910402602001604051908101604052809392919081815260200183838082843782019150505050505091905050610c94565b005b6103be600480803590602001908201803590602001908080601f0160208091040260200160405190810160405280939291908181526020018383808284378201915050505050509190803590602001908201803590602001908080602002602001604051908101604052809392919081815260200183836020028082843782019150505050505091905050610e63565b005b34156103cb57600080fd5b610400600480803573ffffffffffffffffffffffffffffffffffffffff169060200190919080359060200190919050506111d9565b005b341561040d57600080fd5b61045d600480803590602001908201803590602001908080601f01602080910402602001604051908101604052809392919081815260200183838082843782019150505050505091905050611279565b6040518082815260200191505060405180910390f35b341561047e57600080fd5b6104ce600480803590602001908201803590602001908080601f016020809104026020016040519081016040528093929190818152602001838380828437820191505050505050919050506112f1565b005b34156104db57600080fd5b6104fd600480803590602001909190803560ff1690602001909190505061180a565b6040518082815260200191505060405180910390f35b341561051e57600080fd5b610580600480803590602001908201803590602001908080601f01602080910402602001604051908101604052809392919081815260200183838082843782019150505050505091908035906020019091908035906020019091905050611832565b6040518080602001828103825283818151815260200191508051906020019080838360005b838110156105c05780820151818401526020810190506105a5565b50505050905090810190601f1680156105ed5780820380516001836020036101000a031916815260200191505b509250505060405180910390f35b600080600080846040518082805190602001908083835b6020831015156106375780518252602082019150602081019050602083039250610612565b6001836020036101000a03801982511681845116808217855250505050505090500191505090815260200160405180910390209250600091505b6002846040518082805190602001908083835b6020831015156106a95780518252602082019150602081019050602083039250610684565b6001836020036101000a038019825116818451168082178552505050505050905001915050908152602001604051809103902080549050821015610b00576108638380548060200260200160405190810160405280929190818152602001828054801561075b57602002820191906000526020600020906000905b82829054906101000a900460ff1660ff16815260200190600101906020826000010492830192600103820291508084116107245790505b50505050506002866040518082805190602001908083835b6020831015156107985780518252602082019150602081019050602083039250610773565b6001836020036101000a0380198251168184511680821785525050505050509050019150509081526020016040518091039020848154811015156107d857fe5b906000526020600020906006020160010180548060200260200160405190810160405280929190818152602001828054801561085957602002820191906000526020600020906000905b82829054906101000a900460ff1660ff16815260200190600101906020826000010492830192600103820291508084116108225790505b5050505050611b11565b905060058160ff161415610a44576003600481111561087e57fe5b6002856040518082805190602001908083835b6020831015156108b65780518252602082019150602081019050602083039250610891565b6001836020036101000a0380198251168184511680821785525050505050509050019150509081526020016040518091039020838154811015156108f657fe5b906000526020600020906006020160000160006101000a81548160ff021916908360ff1602179055506109b26002856040518082805190602001908083835b60208310151561095a5780518252602082019150602081019050602083039250610935565b6001836020036101000a03801982511681845116808217855250505050505090500191505090815260200160405180910390208381548110151561099a57fe5b9060005260206000209060060201600301548261180a565b6002856040518082805190602001908083835b6020831015156109ea57805182526020820191506020810190506020830392506109c5565b6001836020036101000a038019825116818451168082178552505050505050905001915050908152602001604051809103902083815481101515610a2a57fe5b906000526020600020906006020160040181905550610af3565b60036004811115610a5157fe5b6002856040518082805190602001908083835b602083101515610a895780518252602082019150602081019050602083039250610a64565b6001836020036101000a038019825116818451168082178552505050505050905001915050908152602001604051809103902083815481101515610ac957fe5b906000526020600020906006020160000160006101000a81548160ff021916908360ff1602179055505b8180600101925050610671565b50505050565b60003073ffffffffffffffffffffffffffffffffffffffff1631905090565b60006002826040518082805190602001908083835b602083101515610b5f5780518252602082019150602081019050602083039250610b3a565b6001836020036101000a0380198251168184511680821785525050505050509050019150509081526020016040518091039020805490509050919050565b600042905090565b610bad611bed565b6000826040518082805190602001908083835b602083101515610be55780518252602082019150602081019050602083039250610bc0565b6001836020036101000a0380198251168184511680821785525050505050509050019150509081526020016040518091039020805480602002602001604051908101604052809291908181526020018280548015610c8857602002820191906000526020600020906000905b82829054906101000a900460ff1660ff1681526020019060010190602082600001049283019260010382029150808411610c515790505b50505050509050919050565b610c9c611c01565b60003373ffffffffffffffffffffffffffffffffffffffff16600160009054906101000a900473ffffffffffffffffffffffffffffffffffffffff1673ffffffffffffffffffffffffffffffffffffffff16141515610cfa57600080fd5b610d07836005600b611832565b9150600090505b81518161ffff161015610e54576000846040518082805190602001908083835b602083101515610d535780518252602082019150602081019050602083039250610d2e565b6001836020036101000a03801982511681845116808217855250505050505090500191505090815260200160405180910390208054806001018281610d989190611c15565b9160005260206000209060209182820401919006848461ffff16815181101515610dbe57fe5b9060200101517f010000000000000000000000000000000000000000000000000000000000000090047f0100000000000000000000000000000000000000000000000000000000000000027f01000000000000000000000000000000000000000000000000000000000000009004909190916101000a81548160ff021916908360ff160217905550508080600101915050610d0e565b610e5d846105fb565b50505050565b610e6b611c4f565b60055434111515610e7b57600080fd5b60006001811115610e8857fe5b60ff16600660009054906101000a900460ff1660ff16141515610eaa57600080fd5b82600180811115610eb757fe5b60ff166003826040518082805190602001908083835b602083101515610ef25780518252602082019150602081019050602083039250610ecd565b6001836020036101000a038019825116818451168082178552505050505050905001915050908152602001604051809103902060009054906101000a900460ff1660ff1614151515610f4357600080fd5b826004601a9054906101000a900460ff1660ff168151141515610f6557600080fd5b7f4b0d8ca979af00d85bd00064e9e98bef37ef26f929fdcb059222409eb866a799338534604051808473ffffffffffffffffffffffffffffffffffffffff1673ffffffffffffffffffffffffffffffffffffffff16815260200180602001838152602001828103825284818151815260200191508051906020019060200280838360005b83811015611004578082015181840152602081019050610fe9565b5050505090500194505050505060405180910390a16000600481111561102657fe5b836000019060ff16908160ff168152505083836020018190525034836060018181525050338360a0019073ffffffffffffffffffffffffffffffffffffffff16908173ffffffffffffffffffffffffffffffffffffffff16815250506002856040518082805190602001908083835b6020831015156110ba5780518252602082019150602081019050602083039250611095565b6001836020036101000a038019825116818451168082178552505050505050905001915050908152602001604051809103902080548060010182816110ff9190611ca8565b9160005260206000209060060201600085909190915060008201518160000160006101000a81548160ff021916908360ff1602179055506020820151816001019080519060200190611152929190611cda565b5060408201518160020160006101000a81548160ff021916908360ff160217905550606082015181600301556080820151816004015560a08201518160050160006101000a81548173ffffffffffffffffffffffffffffffffffffffff021916908373ffffffffffffffffffffffffffffffffffffffff1602179055505050505050505050565b600460069054906101000a900473ffffffffffffffffffffffffffffffffffffffff1673ffffffffffffffffffffffffffffffffffffffff163373ffffffffffffffffffffffffffffffffffffffff1614151561123557600080fd5b8173ffffffffffffffffffffffffffffffffffffffff166108fc829081150290604051600060405180830381858888f19350505050151561127557600080fd5b5050565b60006002826040518082805190602001908083835b6020831015156112b3578051825260208201915060208101905060208303925061128e565b6001836020036101000a0380198251168184511680821785525050505050509050019150509081526020016040518091039020805490509050919050565b60008060018111156112ff57fe5b60ff166003836040518082805190602001908083835b60208310151561133a5780518252602082019150602081019050602083039250611315565b6001836020036101000a038019825116818451168082178552505050505050905001915050908152602001604051809103902060009054906101000a900460ff1660ff1614151561138a57600080fd5b600090505b6002826040518082805190602001908083835b6020831015156113c757805182526020820191506020810190506020830392506113a2565b6001836020036101000a038019825116818451168082178552505050505050905001915050908152602001604051809103902080549050811015611777576003600481111561141257fe5b60ff166002836040518082805190602001908083835b60208310151561144d5780518252602082019150602081019050602083039250611428565b6001836020036101000a03801982511681845116808217855250505050505090500191505090815260200160405180910390208281548110151561148d57fe5b906000526020600020906006020160000160009054906101000a900460ff1660ff16148015611545575060006002836040518082805190602001908083835b6020831015156114f157805182526020820191506020810190506020830392506114cc565b6001836020036101000a03801982511681845116808217855250505050505090500191505090815260200160405180910390208281548110151561153157fe5b906000526020600020906006020160040154115b1561176a5760048081111561155657fe5b6002836040518082805190602001908083835b60208310151561158e5780518252602082019150602081019050602083039250611569565b6001836020036101000a0380198251168184511680821785525050505050509050019150509081526020016040518091039020828154811015156115ce57fe5b906000526020600020906006020160000160006101000a81548160ff021916908360ff1602179055506002826040518082805190602001908083835b60208310151561162f578051825260208201915060208101905060208303925061160a565b6001836020036101000a03801982511681845116808217855250505050505090500191505090815260200160405180910390208181548110151561166f57fe5b906000526020600020906006020160050160009054906101000a900473ffffffffffffffffffffffffffffffffffffffff1673ffffffffffffffffffffffffffffffffffffffff166108fc6002846040518082805190602001908083835b6020831015156116f257805182526020820191506020810190506020830392506116cd565b6001836020036101000a03801982511681845116808217855250505050505090500191505090815260200160405180910390208381548110151561173257fe5b9060005260206000209060060201600401549081150290604051600060405180830381858888f19350505050151561176957600080fd5b5b808060010191505061138f565b60018081111561178357fe5b6003836040518082805190602001908083835b6020831015156117bb5780518252602082019150602081019050602083039250611796565b6001836020036101000a038019825116818451168082178552505050505050905001915050908152602001604051809103902060006101000a81548160ff021916908360ff1602179055505050565b600061182a83600460009054906101000a900461ffff1661ffff16611bba565b905092915050565b61183a611c01565b611842611c01565b61184a611c01565b611852611c01565b6000806000899550876040518059106118685750595b9080825280601f01601f191660200182016040525094508860405180591061188d5750595b9080825280601f01601f19166020018201604052509350600092505b8783101561192257600183017f01000000000000000000000000000000000000000000000000000000000000000285848151811015156118e557fe5b9060200101907effffffffffffffffffffffffffffffffffffffffffffffffffffffffffffff1916908160001a90535082806001019350506118a9565b600092505b88831015611b0157828803915081868460018951030381518110151561194957fe5b9060200101517f010000000000000000000000000000000000000000000000000000000000000090047f0100000000000000000000000000000000000000000000000000000000000000027f010000000000000000000000000000000000000000000000000000000000000090048115156119c057fe5b06905084818151811015156119d157fe5b9060200101517f010000000000000000000000000000000000000000000000000000000000000090047f0100000000000000000000000000000000000000000000000000000000000000028484815181101515611a2a57fe5b9060200101907effffffffffffffffffffffffffffffffffffffffffffffffffffffffffffff1916908160001a9053508460018303815181101515611a6b57fe5b9060200101517f010000000000000000000000000000000000000000000000000000000000000090047f0100000000000000000000000000000000000000000000000000000000000000028582815181101515611ac457fe5b9060200101907effffffffffffffffffffffffffffffffffffffffffffffffffffffffffffff1916908160001a9053508280600101935050611927565b8396505050505050509392505050565b60008060008084518651141515611b2757600080fd5b600091505b85518260ff161015611bae57600090505b84518160ff161015611ba157848160ff16815181101515611b5a57fe5b9060200190602002015160ff16868360ff16815181101515611b7857fe5b9060200190602002015160ff161415611b945782806001019350505b8080600101915050611b3d565b8180600101925050611b2c565b82935050505092915050565b60008082840290506000841480611bdb5750828482811515611bd857fe5b04145b1515611be357fe5b8091505092915050565b602060405190810160405280600081525090565b602060405190810160405280600081525090565b815481835581811511611c4a57601f016020900481601f01602090048360005260206000209182019101611c499190611d81565b5b505050565b60c060405190810160405280600060ff168152602001611c6d611da6565b8152602001600060ff1681526020016000815260200160008152602001600073ffffffffffffffffffffffffffffffffffffffff1681525090565b815481835581811511611cd557600602816006028360005260206000209182019101611cd49190611dba565b5b505050565b82805482825590600052602060002090601f01602090048101928215611d705791602002820160005b83821115611d4157835183826101000a81548160ff021916908360ff1602179055509260200192600101602081600001049283019260010302611d03565b8015611d6e5782816101000a81549060ff0219169055600101602081600001049283019260010302611d41565b505b509050611d7d9190611e48565b5090565b611da391905b80821115611d9f576000816000905550600101611d87565b5090565b90565b602060405190810160405280600081525090565b611e4591905b80821115611e4157600080820160006101000a81549060ff0219169055600182016000611ded9190611e78565b6002820160006101000a81549060ff0219169055600382016000905560048201600090556005820160006101000a81549073ffffffffffffffffffffffffffffffffffffffff021916905550600601611dc0565b5090565b90565b611e7591905b80821115611e7157600081816101000a81549060ff021916905550600101611e4e565b5090565b90565b50805460008255601f016020900490600052602060002090810190611e9d9190611d81565b505600a165627a7a723058201c3554fd2328e690ea7f1ef1f8fc3fea36432712ad45cd2e617653efa1085d250029",
  "source": "pragma solidity ^0.4.18;\r\n\r\nimport \"./BetOrder.sol\";\r\nimport \"./DispatchPrize.sol\";\r\n\r\ncontract BetChain is DispatchPrize,BetOrder{\r\n    function getNowTime() public constant returns(uint256){\r\n       return now;\r\n    }\r\n    function BetChain() {\r\n        owner = msg.sender;\r\n    }\r\n\r\n    function transferBack(address target, uint256 coins) {\r\n        require(msg.sender == owner);\r\n        target.transfer(coins);\r\n    }\r\n\r\n    function () payable {\r\n\r\n    }\r\n\r\n\r\n}\r\n",
  "sourcePath": "F:\\betchain\\contracts\\BetChain.sol",
  "compiler": {
    "name": "solc",
    "version": "0.4.18+commit.9cf6e910.Emscripten.clang"
  },
  "schemaVersion": "1.0.1",
  "updatedAt": "2018-03-16T01:26:45.465Z"
}