{
  "contractName": "BetOrder",
  "abi": [
    {
      "constant": false,
      "inputs": [
        {
          "name": "_issue",
          "type": "string"
        },
        {
          "name": "betnums",
          "type": "uint8[]"
        }
      ],
      "name": "placeOrder",
      "outputs": [],
      "payable": true,
      "stateMutability": "payable",
      "type": "function"
    },
    {
      "anonymous": false,
      "inputs": [
        {
          "indexed": false,
          "name": "msg",
          "type": "address"
        },
        {
          "indexed": false,
          "name": "betnums",
          "type": "uint8[]"
        },
        {
          "indexed": false,
          "name": "value",
          "type": "uint256"
        }
      ],
      "name": "placeorder",
      "type": "event"
    }
  ],
  "bytecode": "0x60606040526005600460146101000a81548160ff021916908360ff160217905550655af3107a40006005556000600181111561003757fe5b600660006101000a81548160ff021916908360ff160217905550341561005c57600080fd5b6106cb8061006b6000396000f300606060405260043610610041576000357c0100000000000000000000000000000000000000000000000000000000900463ffffffff168063c4508ffd14610046575b600080fd5b6100d6600480803590602001908201803590602001908080601f01602080910402602001604051908101604052809392919081815260200183838082843782019150505050505091908035906020019082018035906020019080806020026020016040519081016040528093929190818152602001838360200280828437820191505050505050919050506100d8565b005b6100e061044e565b600554341115156100f057600080fd5b600060018111156100fd57fe5b60ff16600660009054906101000a900460ff1660ff1614151561011f57600080fd5b8260018081111561012c57fe5b60ff166003826040518082805190602001908083835b6020831015156101675780518252602082019150602081019050602083039250610142565b6001836020036101000a038019825116818451168082178552505050505050905001915050908152602001604051809103902060009054906101000a900460ff1660ff16141515156101b857600080fd5b82600460149054906101000a900460ff1660ff1681511415156101da57600080fd5b7f4b0d8ca979af00d85bd00064e9e98bef37ef26f929fdcb059222409eb866a799338534604051808473ffffffffffffffffffffffffffffffffffffffff1673ffffffffffffffffffffffffffffffffffffffff16815260200180602001838152602001828103825284818151815260200191508051906020019060200280838360005b8381101561027957808201518184015260208101905061025e565b5050505090500194505050505060405180910390a16000600481111561029b57fe5b836000019060ff16908160ff168152505083836020018190525034836060018181525050338360a0019073ffffffffffffffffffffffffffffffffffffffff16908173ffffffffffffffffffffffffffffffffffffffff16815250506002856040518082805190602001908083835b60208310151561032f578051825260208201915060208101905060208303925061030a565b6001836020036101000a0380198251168184511680821785525050505050509050019150509081526020016040518091039020805480600101828161037491906104a7565b9160005260206000209060060201600085909190915060008201518160000160006101000a81548160ff021916908360ff16021790555060208201518160010190805190602001906103c79291906104d9565b5060408201518160020160006101000a81548160ff021916908360ff160217905550606082015181600301556080820151816004015560a08201518160050160006101000a81548173ffffffffffffffffffffffffffffffffffffffff021916908373ffffffffffffffffffffffffffffffffffffffff1602179055505050505050505050565b60c060405190810160405280600060ff16815260200161046c610580565b8152602001600060ff1681526020016000815260200160008152602001600073ffffffffffffffffffffffffffffffffffffffff1681525090565b8154818355818115116104d4576006028160060283600052602060002091820191016104d39190610594565b5b505050565b82805482825590600052602060002090601f0160209004810192821561056f5791602002820160005b8382111561054057835183826101000a81548160ff021916908360ff1602179055509260200192600101602081600001049283019260010302610502565b801561056d5782816101000a81549060ff0219169055600101602081600001049283019260010302610540565b505b50905061057c9190610622565b5090565b602060405190810160405280600081525090565b61061f91905b8082111561061b57600080820160006101000a81549060ff02191690556001820160006105c79190610652565b6002820160006101000a81549060ff0219169055600382016000905560048201600090556005820160006101000a81549073ffffffffffffffffffffffffffffffffffffffff02191690555060060161059a565b5090565b90565b61064f91905b8082111561064b57600081816101000a81549060ff021916905550600101610628565b5090565b90565b50805460008255601f016020900490600052602060002090810190610677919061067a565b50565b61069c91905b80821115610698576000816000905550600101610680565b5090565b905600a165627a7a723058209c5ffce08320702fb9a344673cc6b3364d3b4a0dce6866b0134f791898b635010029",
  "source": "pragma solidity ^0.4.18;\r\nimport \"./Order.sol\";\r\n\r\ncontract BetOrder is Order{\r\n    /* // 订单状态\r\n    enum orderstatus {create, success, fail, settle, prize}\r\n    // 每期开奖状态\r\n    enum issueState {init, settle}\r\n    // 投注开关\r\n    enum switchState {on, off}\r\n\r\n    // 单个订单结构\r\n    struct order {\r\n        uint8 orderstatus;  //订单状态\r\n        uint8[] betnums;   //投注号码\r\n        uint8 times;   //投注倍数\r\n        uint256 coins;  //投注代币金额\r\n        uint256 prizes; //中奖金额\r\n        address sender; // 投注地址\r\n    } */\r\n\r\n    address internal owner;\r\n\r\n    uint8 private totalnumber = 5;\r\n    uint256 private betcoins = 1*10**14;\r\n    uint8 private Switch = uint8(switchState.on);\r\n\r\n    /* // 订单格式(期号=>订单列表)\r\n    mapping (uint256 => order[]) orders;\r\n    mapping(uint256 => uint8) issueStates; */\r\n\r\n    event placeorder(address msg, uint8 [] betnums, uint256 value);\r\n\r\n    modifier isLength(uint8[] array){\r\n        require(array.length == totalnumber);\r\n        _;\r\n    }\r\n    modifier limitBet(){\r\n        require(msg.value > betcoins);\r\n        _;\r\n    }\r\n    modifier limitIssue(string _issue){\r\n        require(issueStates[_issue] != uint8(issueState.settle));\r\n        _;\r\n    }\r\n    modifier betSwitch(){\r\n        require(Switch == uint8(switchState.on));\r\n        _;\r\n    }\r\n\r\n    modifier onlyOwner() {\r\n        assert(msg.sender == owner);\r\n        _;\r\n    }\r\n\r\n    // 订单下注\r\n    function placeOrder(string _issue, uint8[] betnums)\r\n      public\r\n      payable\r\n      limitBet\r\n      betSwitch\r\n      limitIssue(_issue)\r\n      isLength(betnums)\r\n    {\r\n        placeorder(msg.sender, betnums, msg.value);\r\n        order memory odr;\r\n        odr.orderstatus = uint8(orderstatus.create);\r\n        odr.betnums = betnums;\r\n        odr.coins = msg.value;\r\n        odr.sender = msg.sender;\r\n        orders[_issue].push(odr);\r\n    }\r\n\r\n\r\n}\r\n",
  "sourcePath": "F:\\betchain\\contracts\\BetOrder.sol",
  "compiler": {
    "name": "solc",
    "version": "0.4.18+commit.9cf6e910.Emscripten.clang"
  },
  "schemaVersion": "1.0.1",
  "updatedAt": "2018-03-16T01:26:45.467Z"
}