{
  "contractName": "DispatchPrize",
  "abi": [
    {
      "constant": false,
      "inputs": [
        {
          "name": "_issue",
          "type": "string"
        }
      ],
      "name": "settleOrder",
      "outputs": [],
      "payable": false,
      "stateMutability": "nonpayable",
      "type": "function"
    },
    {
      "constant": true,
      "inputs": [],
      "name": "searchBalance",
      "outputs": [
        {
          "name": "",
          "type": "uint256"
        }
      ],
      "payable": false,
      "stateMutability": "view",
      "type": "function"
    },
    {
      "constant": true,
      "inputs": [
        {
          "name": "_issue",
          "type": "string"
        }
      ],
      "name": "search",
      "outputs": [
        {
          "name": "",
          "type": "uint256"
        }
      ],
      "payable": false,
      "stateMutability": "view",
      "type": "function"
    },
    {
      "constant": true,
      "inputs": [
        {
          "name": "_issue",
          "type": "string"
        }
      ],
      "name": "getWinNumbers",
      "outputs": [
        {
          "name": "",
          "type": "uint8[]"
        }
      ],
      "payable": false,
      "stateMutability": "view",
      "type": "function"
    },
    {
      "constant": false,
      "inputs": [
        {
          "name": "_issue",
          "type": "string"
        },
        {
          "name": "randomStr",
          "type": "string"
        }
      ],
      "name": "setWinNumbers",
      "outputs": [],
      "payable": false,
      "stateMutability": "nonpayable",
      "type": "function"
    },
    {
      "constant": true,
      "inputs": [
        {
          "name": "_issue",
          "type": "string"
        }
      ],
      "name": "searchOrder",
      "outputs": [
        {
          "name": "",
          "type": "uint256"
        }
      ],
      "payable": false,
      "stateMutability": "view",
      "type": "function"
    },
    {
      "constant": false,
      "inputs": [
        {
          "name": "_issue",
          "type": "string"
        }
      ],
      "name": "settlePrize",
      "outputs": [],
      "payable": false,
      "stateMutability": "nonpayable",
      "type": "function"
    },
    {
      "constant": false,
      "inputs": [
        {
          "name": "betcoins",
          "type": "uint256"
        },
        {
          "name": "winNumberCount",
          "type": "uint8"
        }
      ],
      "name": "calculatePrize",
      "outputs": [
        {
          "name": "",
          "type": "uint256"
        }
      ],
      "payable": false,
      "stateMutability": "nonpayable",
      "type": "function"
    },
    {
      "constant": true,
      "inputs": [
        {
          "name": "randomStr",
          "type": "string"
        },
        {
          "name": "numberCount",
          "type": "uint256"
        },
        {
          "name": "numberCountMax",
          "type": "uint256"
        }
      ],
      "name": "generateWinNumbers",
      "outputs": [
        {
          "name": "",
          "type": "bytes"
        }
      ],
      "payable": false,
      "stateMutability": "view",
      "type": "function"
    }
  ],
  "bytecode": "0x60606040526001600460006101000a81548161ffff021916908361ffff1602179055506080600460026101000a81548161ffff021916908361ffff160217905550600a6004806101000a81548161ffff021916908361ffff160217905550341561006857600080fd5b611767806100776000396000f300606060405260043610610099576000357c0100000000000000000000000000000000000000000000000000000000900463ffffffff1680633723cd9e1461009e5780635890704f146100fb578063820ed086146101245780639d24523814610195578063be3edd8314610247578063e35a48de146102e7578063e4fc890614610358578063ef93f177146103b5578063fd81745a146103f8575b600080fd5b34156100a957600080fd5b6100f9600480803590602001908201803590602001908080601f016020809104026020016040519081016040528093929190818152602001838380828437820191505050505050919050506104e0565b005b341561010657600080fd5b61010e6109eb565b6040518082815260200191505060405180910390f35b341561012f57600080fd5b61017f600480803590602001908201803590602001908080601f01602080910402602001604051908101604052809392919081815260200183838082843782019150505050505091905050610a0a565b6040518082815260200191505060405180910390f35b34156101a057600080fd5b6101f0600480803590602001908201803590602001908080601f01602080910402602001604051908101604052809392919081815260200183838082843782019150505050505091905050610a82565b6040518080602001828103825283818151815260200191508051906020019060200280838360005b83811015610233578082015181840152602081019050610218565b505050509050019250505060405180910390f35b341561025257600080fd5b6102e5600480803590602001908201803590602001908080601f0160208091040260200160405190810160405280939291908181526020018383808284378201915050505050509190803590602001908201803590602001908080601f01602080910402602001604051908101604052809392919081815260200183838082843782019150505050505091905050610b71565b005b34156102f257600080fd5b610342600480803590602001908201803590602001908080601f01602080910402602001604051908101604052809392919081815260200183838082843782019150505050505091905050610d40565b6040518082815260200191505060405180910390f35b341561036357600080fd5b6103b3600480803590602001908201803590602001908080601f01602080910402602001604051908101604052809392919081815260200183838082843782019150505050505091905050610db8565b005b34156103c057600080fd5b6103e2600480803590602001909190803560ff169060200190919050506112d1565b6040518082815260200191505060405180910390f35b341561040357600080fd5b610465600480803590602001908201803590602001908080601f016020809104026020016040519081016040528093929190818152602001838380828437820191505050505050919080359060200190919080359060200190919050506112f9565b6040518080602001828103825283818151815260200191508051906020019080838360005b838110156104a557808201518184015260208101905061048a565b50505050905090810190601f1680156104d25780820380516001836020036101000a031916815260200191505b509250505060405180910390f35b600080600080846040518082805190602001908083835b60208310151561051c57805182526020820191506020810190506020830392506104f7565b6001836020036101000a03801982511681845116808217855250505050505090500191505090815260200160405180910390209250600091505b6002846040518082805190602001908083835b60208310151561058e5780518252602082019150602081019050602083039250610569565b6001836020036101000a0380198251168184511680821785525050505050509050019150509081526020016040518091039020805490508210156109e5576107488380548060200260200160405190810160405280929190818152602001828054801561064057602002820191906000526020600020906000905b82829054906101000a900460ff1660ff16815260200190600101906020826000010492830192600103820291508084116106095790505b50505050506002866040518082805190602001908083835b60208310151561067d5780518252602082019150602081019050602083039250610658565b6001836020036101000a0380198251168184511680821785525050505050509050019150509081526020016040518091039020848154811015156106bd57fe5b906000526020600020906006020160010180548060200260200160405190810160405280929190818152602001828054801561073e57602002820191906000526020600020906000905b82829054906101000a900460ff1660ff16815260200190600101906020826000010492830192600103820291508084116107075790505b50505050506115d8565b905060058160ff161415610929576003600481111561076357fe5b6002856040518082805190602001908083835b60208310151561079b5780518252602082019150602081019050602083039250610776565b6001836020036101000a0380198251168184511680821785525050505050509050019150509081526020016040518091039020838154811015156107db57fe5b906000526020600020906006020160000160006101000a81548160ff021916908360ff1602179055506108976002856040518082805190602001908083835b60208310151561083f578051825260208201915060208101905060208303925061081a565b6001836020036101000a03801982511681845116808217855250505050505090500191505090815260200160405180910390208381548110151561087f57fe5b906000526020600020906006020160030154826112d1565b6002856040518082805190602001908083835b6020831015156108cf57805182526020820191506020810190506020830392506108aa565b6001836020036101000a03801982511681845116808217855250505050505090500191505090815260200160405180910390208381548110151561090f57fe5b9060005260206000209060060201600401819055506109d8565b6003600481111561093657fe5b6002856040518082805190602001908083835b60208310151561096e5780518252602082019150602081019050602083039250610949565b6001836020036101000a0380198251168184511680821785525050505050509050019150509081526020016040518091039020838154811015156109ae57fe5b906000526020600020906006020160000160006101000a81548160ff021916908360ff1602179055505b8180600101925050610556565b50505050565b60003073ffffffffffffffffffffffffffffffffffffffff1631905090565b60006002826040518082805190602001908083835b602083101515610a445780518252602082019150602081019050602083039250610a1f565b6001836020036101000a0380198251168184511680821785525050505050509050019150509081526020016040518091039020805490509050919050565b610a8a6116b4565b6000826040518082805190602001908083835b602083101515610ac25780518252602082019150602081019050602083039250610a9d565b6001836020036101000a0380198251168184511680821785525050505050509050019150509081526020016040518091039020805480602002602001604051908101604052809291908181526020018280548015610b6557602002820191906000526020600020906000905b82829054906101000a900460ff1660ff1681526020019060010190602082600001049283019260010382029150808411610b2e5790505b50505050509050919050565b610b796116c8565b60003373ffffffffffffffffffffffffffffffffffffffff16600160009054906101000a900473ffffffffffffffffffffffffffffffffffffffff1673ffffffffffffffffffffffffffffffffffffffff16141515610bd757600080fd5b610be4836005600b6112f9565b9150600090505b81518161ffff161015610d31576000846040518082805190602001908083835b602083101515610c305780518252602082019150602081019050602083039250610c0b565b6001836020036101000a03801982511681845116808217855250505050505090500191505090815260200160405180910390208054806001018281610c7591906116dc565b9160005260206000209060209182820401919006848461ffff16815181101515610c9b57fe5b9060200101517f010000000000000000000000000000000000000000000000000000000000000090047f0100000000000000000000000000000000000000000000000000000000000000027f01000000000000000000000000000000000000000000000000000000000000009004909190916101000a81548160ff021916908360ff160217905550508080600101915050610beb565b610d3a846104e0565b50505050565b60006002826040518082805190602001908083835b602083101515610d7a5780518252602082019150602081019050602083039250610d55565b6001836020036101000a0380198251168184511680821785525050505050509050019150509081526020016040518091039020805490509050919050565b6000806001811115610dc657fe5b60ff166003836040518082805190602001908083835b602083101515610e015780518252602082019150602081019050602083039250610ddc565b6001836020036101000a038019825116818451168082178552505050505050905001915050908152602001604051809103902060009054906101000a900460ff1660ff16141515610e5157600080fd5b600090505b6002826040518082805190602001908083835b602083101515610e8e5780518252602082019150602081019050602083039250610e69565b6001836020036101000a03801982511681845116808217855250505050505090500191505090815260200160405180910390208054905081101561123e5760036004811115610ed957fe5b60ff166002836040518082805190602001908083835b602083101515610f145780518252602082019150602081019050602083039250610eef565b6001836020036101000a038019825116818451168082178552505050505050905001915050908152602001604051809103902082815481101515610f5457fe5b906000526020600020906006020160000160009054906101000a900460ff1660ff1614801561100c575060006002836040518082805190602001908083835b602083101515610fb85780518252602082019150602081019050602083039250610f93565b6001836020036101000a038019825116818451168082178552505050505050905001915050908152602001604051809103902082815481101515610ff857fe5b906000526020600020906006020160040154115b156112315760048081111561101d57fe5b6002836040518082805190602001908083835b6020831015156110555780518252602082019150602081019050602083039250611030565b6001836020036101000a03801982511681845116808217855250505050505090500191505090815260200160405180910390208281548110151561109557fe5b906000526020600020906006020160000160006101000a81548160ff021916908360ff1602179055506002826040518082805190602001908083835b6020831015156110f657805182526020820191506020810190506020830392506110d1565b6001836020036101000a03801982511681845116808217855250505050505090500191505090815260200160405180910390208181548110151561113657fe5b906000526020600020906006020160050160009054906101000a900473ffffffffffffffffffffffffffffffffffffffff1673ffffffffffffffffffffffffffffffffffffffff166108fc6002846040518082805190602001908083835b6020831015156111b95780518252602082019150602081019050602083039250611194565b6001836020036101000a0380198251168184511680821785525050505050509050019150509081526020016040518091039020838154811015156111f957fe5b9060005260206000209060060201600401549081150290604051600060405180830381858888f19350505050151561123057600080fd5b5b8080600101915050610e56565b60018081111561124a57fe5b6003836040518082805190602001908083835b602083101515611282578051825260208201915060208101905060208303925061125d565b6001836020036101000a038019825116818451168082178552505050505050905001915050908152602001604051809103902060006101000a81548160ff021916908360ff1602179055505050565b60006112f183600460009054906101000a900461ffff1661ffff16611681565b905092915050565b6113016116c8565b6113096116c8565b6113116116c8565b6113196116c8565b60008060008995508760405180591061132f5750595b9080825280601f01601f19166020018201604052509450886040518059106113545750595b9080825280601f01601f19166020018201604052509350600092505b878310156113e957600183017f01000000000000000000000000000000000000000000000000000000000000000285848151811015156113ac57fe5b9060200101907effffffffffffffffffffffffffffffffffffffffffffffffffffffffffffff1916908160001a9053508280600101935050611370565b600092505b888310156115c857828803915081868460018951030381518110151561141057fe5b9060200101517f010000000000000000000000000000000000000000000000000000000000000090047f0100000000000000000000000000000000000000000000000000000000000000027f0100000000000000000000000000000000000000000000000000000000000000900481151561148757fe5b069050848181518110151561149857fe5b9060200101517f010000000000000000000000000000000000000000000000000000000000000090047f01000000000000000000000000000000000000000000000000000000000000000284848151811015156114f157fe5b9060200101907effffffffffffffffffffffffffffffffffffffffffffffffffffffffffffff1916908160001a905350846001830381518110151561153257fe5b9060200101517f010000000000000000000000000000000000000000000000000000000000000090047f010000000000000000000000000000000000000000000000000000000000000002858281518110151561158b57fe5b9060200101907effffffffffffffffffffffffffffffffffffffffffffffffffffffffffffff1916908160001a90535082806001019350506113ee565b8396505050505050509392505050565b600080600080845186511415156115ee57600080fd5b600091505b85518260ff16101561167557600090505b84518160ff16101561166857848160ff1681518110151561162157fe5b9060200190602002015160ff16868360ff1681518110151561163f57fe5b9060200190602002015160ff16141561165b5782806001019350505b8080600101915050611604565b81806001019250506115f3565b82935050505092915050565b600080828402905060008414806116a2575082848281151561169f57fe5b04145b15156116aa57fe5b8091505092915050565b602060405190810160405280600081525090565b602060405190810160405280600081525090565b81548183558181151161171157601f016020900481601f016020900483600052602060002091820191016117109190611716565b5b505050565b61173891905b8082111561173457600081600090555060010161171c565b5090565b905600a165627a7a72305820c418bf2dc78eb0e260b1b8f704fa576181b45f35d7910e70406a35623098f5d00029",
  "source": "pragma solidity ^0.4.18;\r\n\r\nimport \"./Order.sol\";\r\nimport \"./Salf.sol\";\r\n\r\ncontract DispatchPrize is Order,SalfOperate{\r\n\r\n    //奖金初始倍数设置\r\n    uint16 internal randomOrder5 = 1;   //任5\r\n    uint16 internal randomOrder4 = 128;   //任4\r\n    uint16 internal randomOrder3 = 10;   // 任3\r\n\r\n    modifier randomStrLegal(string randomStr) {\r\n        require(bytes(randomStr).length == 66);\r\n        _;\r\n    }\r\n    modifier Owner() {\r\n        require(owner == msg.sender);\r\n        _;\r\n    }\r\n\r\n    function search(string _issue)constant public returns (uint256) {\r\n        return orders[_issue].length;\r\n    }\r\n\r\n    function searchOrder(string _issue) constant public returns(uint){\r\n        return orders[_issue].length;\r\n    }\r\n\r\n    function searchBalance()public constant returns(uint256){\r\n        return this.balance;\r\n    }\r\n\r\n    function setWinNumbers(string _issue, string randomStr) Owner{\r\n        bytes memory winNumbers = generateWinNumbers(randomStr, 5, 11);\r\n        for (uint16 i=0; i<winNumbers.length; i++){\r\n            winNumbersPerIssue[_issue].push(uint8(winNumbers[i]));\r\n        }\r\n        settleOrder(_issue);\r\n    }\r\n\r\n    function getWinNumbers(string _issue) public constant returns(uint8[]){\r\n        return winNumbersPerIssue[_issue];\r\n    }\r\n\r\n    function settleOrder(string _issue) {\r\n        //require(prizeNum.length==5);\r\n        uint8[] prizeNum = winNumbersPerIssue[_issue];\r\n        for(uint256 i=0; i<orders[_issue].length; i++){\r\n            uint8 winNumberCount = checkArray(prizeNum, orders[_issue][i].betnums);\r\n            if (winNumberCount == 5){\r\n              // 更新为中奖状态，计算奖金\r\n              orders[_issue][i].orderstatus = uint8(orderstatus.settle);\r\n              orders[_issue][i].prizes = calculatePrize(orders[_issue][i].coins, winNumberCount);\r\n            }\r\n            else{\r\n              orders[_issue][i].orderstatus = uint8(orderstatus.settle);\r\n            }\r\n        }\r\n    }\r\n\r\n    // 奖金计算\r\n    function calculatePrize(uint256 betcoins, uint8 winNumberCount) returns(uint){\r\n         return safeMultiply(betcoins, randomOrder5);\r\n    }\r\n\r\n    // 派奖\r\n    function settlePrize(string _issue) public {\r\n        require(issueStates[_issue] == uint8(issueState.init));\r\n        for(uint256 i=0; i<orders[_issue].length; i++){\r\n            if (orders[_issue][i].orderstatus == uint8(orderstatus.settle) && orders[_issue][i].prizes > 0){\r\n                orders[_issue][i].orderstatus = uint8(orderstatus.prize);\r\n                orders[_issue][i].sender.transfer(orders[_issue][i].prizes);\r\n            }\r\n        }\r\n        issueStates[_issue] = uint8(issueState.settle);\r\n    }\r\n\r\n\r\n\r\n}\r\n",
  "sourcePath": "F:\\betchain\\contracts\\DispatchPrize.sol",
  "compiler": {
    "name": "solc",
    "version": "0.4.18+commit.9cf6e910.Emscripten.clang"
  },
  "schemaVersion": "1.0.1",
  "updatedAt": "2018-03-16T01:26:45.473Z"
}