{
  "contractName": "SalfOperate",
  "abi": [
    {
      "constant": true,
      "inputs": [
        {
          "name": "randomStr",
          "type": "string"
        },
        {
          "name": "numberCount",
          "type": "uint256"
        },
        {
          "name": "numberCountMax",
          "type": "uint256"
        }
      ],
      "name": "generateWinNumbers",
      "outputs": [
        {
          "name": "",
          "type": "bytes"
        }
      ],
      "payable": false,
      "stateMutability": "view",
      "type": "function"
    }
  ],
  "bytecode": "0x6060604052341561000f57600080fd5b61044d8061001e6000396000f300606060405260043610610041576000357c0100000000000000000000000000000000000000000000000000000000900463ffffffff168063fd81745a14610046575b600080fd5b341561005157600080fd5b6100b3600480803590602001908201803590602001908080601f0160208091040260200160405190810160405280939291908181526020018383808284378201915050505050509190803590602001909190803590602001909190505061012e565b6040518080602001828103825283818151815260200191508051906020019080838360005b838110156100f35780820151818401526020810190506100d8565b50505050905090810190601f1680156101205780820380516001836020036101000a031916815260200191505b509250505060405180910390f35b61013661040d565b61013e61040d565b61014661040d565b61014e61040d565b6000806000899550876040518059106101645750595b9080825280601f01601f19166020018201604052509450886040518059106101895750595b9080825280601f01601f19166020018201604052509350600092505b8783101561021e57600183017f01000000000000000000000000000000000000000000000000000000000000000285848151811015156101e157fe5b9060200101907effffffffffffffffffffffffffffffffffffffffffffffffffffffffffffff1916908160001a90535082806001019350506101a5565b600092505b888310156103fd57828803915081868460018951030381518110151561024557fe5b9060200101517f010000000000000000000000000000000000000000000000000000000000000090047f0100000000000000000000000000000000000000000000000000000000000000027f010000000000000000000000000000000000000000000000000000000000000090048115156102bc57fe5b06905084818151811015156102cd57fe5b9060200101517f010000000000000000000000000000000000000000000000000000000000000090047f010000000000000000000000000000000000000000000000000000000000000002848481518110151561032657fe5b9060200101907effffffffffffffffffffffffffffffffffffffffffffffffffffffffffffff1916908160001a905350846001830381518110151561036757fe5b9060200101517f010000000000000000000000000000000000000000000000000000000000000090047f01000000000000000000000000000000000000000000000000000000000000000285828151811015156103c057fe5b9060200101907effffffffffffffffffffffffffffffffffffffffffffffffffffffffffffff1916908160001a9053508280600101935050610223565b8396505050505050509392505050565b6020604051908101604052806000815250905600a165627a7a723058202e535c516e16f29a8f8b0b7f2aaca8aaae32e338c86d8ac5dd33e524f748be5d0029",
  "source": "pragma solidity ^0.4.18;\r\n\r\ncontract SalfOperate {\r\n\r\n    // 返回相同号码的个数\r\n    function checkArray(uint8[] a, uint8[] b) internal returns (uint8) {\r\n        require(a.length==b.length);\r\n        //uint256[5] memory c=a;\r\n        uint8 equalNumberCount;\r\n        for(uint8 i=0; i<a.length; i++){\r\n            for(uint8 j=0; j < b.length; j++){\r\n                if (a[i]==b[j]){\r\n                      equalNumberCount++;\r\n                }\r\n            }\r\n        }\r\n        return equalNumberCount;\r\n    }\r\n\r\n    // 检测两个数组是否相等\r\n    function checkEqual(uint8[] a, uint8[] b) internal returns(bool){\r\n        require(a.length==b.length);\r\n        for(uint8 i=0; i<a.length; i++){\r\n            if (a[i] != b[i]){\r\n                return false;\r\n            }\r\n        }\r\n        return true;\r\n    }\r\n\r\n    function safeMultiply(uint a, uint b) internal returns (uint) {\r\n        uint c = a * b;\r\n        assert(a == 0 || (c / a) == b);\r\n        return c;\r\n    }\r\n\r\n    function generateWinNumbers(string randomStr, uint numberCount, uint numberCountMax) constant public returns(bytes){\r\n        //bytes memory random = block.blockhash(block.number-1);\r\n        bytes memory random = bytes(randomStr);\r\n        bytes memory allNumbers = new bytes(numberCountMax);\r\n        bytes memory winNumbers = new bytes(numberCount);\r\n        for (uint i=0; i< numberCountMax; i++){\r\n            allNumbers[i]=byte(i+1);\r\n        }\r\n\r\n        for(i=0;i<numberCount;i++){\r\n            uint n = numberCountMax -i;\r\n            uint r = uint(random[random.length-1-i]) % n;\r\n            winNumbers[i] = allNumbers[r];\r\n            allNumbers[r] = allNumbers[n-1];\r\n        }\r\n        return winNumbers;\r\n    }\r\n\r\n}\r\n",
  "sourcePath": "F:\\betchain\\contracts\\Salf.sol",
  "compiler": {
    "name": "solc",
    "version": "0.4.18+commit.9cf6e910.Emscripten.clang"
  },
  "schemaVersion": "1.0.1",
  "updatedAt": "2018-03-16T01:26:45.476Z"
}